:1000000000400020C50300000504000007040000B4
:1000100000000000000000000000000000000000E0
:1000200000000000000000000000000009040000C3
:1000300000000000000000000B0400000D040000A0
:100040000F0400000F0400000F0400000F04000064
:100050000F040000000000000F0400000F04000067
:100060000F0400000F0400000F0400000F04000044
:100070000F0400000F0400000F0400000F04000034
:100080000F0400000F0400000F0400000F04000024
:100090000F0400000F0400000F0400000F04000014
:1000A0000F0400000F04000000000000000000002A
:1000B0000000000000000000000000000000000040
:1000C00010B5064C2378002B07D1054B002B02D02E
:1000D000044800E000BF0123237010BD3C04002051
:1000E00000000000D0060000044B10B5002B03D028
:1000F0000349044800E000BF10BDC04600000000F6
:1001000040040020D0060000144B002B00D1124BFD
:100110009D46402292029A1A924600218B460F4633
:100120001148124A121A00F0C1F90D4B002B00D0F1
:1001300098470C4B002B00D098470020002104006A
:100140000D000B4800F064F900F08EF92000290042
:1001500000F010F800F064F90000080000400020F2
:1001600000000000000000003C04002058040020B3
:100170004104000080B582B000AF04237B6013E02F
:1001800001227B689A401100A023DA05A323DB003B
:10019000D15001227B689A40A023DB051100184A48
:1001A00099507B6801337B607B680F2BE8DDA023CF
:1001B000DA05A123DB0080218901D150A023DA05D3
:1001C000A123DB008021C901D150A023DA05A1239E
:1001D000DB0080210902D150A023DB0508498022E1
:1001E00092015A50A023DB0505498022D2015A50C2
:1001F000A023DB050249802212025A50D7E7C046ED
:100200000C05000080B500AF024B034A1A60C046DF
:10021000BD4680BD000000200024F40080B500AF82
:1002200000F036F8031E06D0134B144A1A60144B24
:10023000802212021A6000F06BF8031E05D08023A2
:10024000DA05C123DB000121D15000F087F8031E3D
:100250000ED00C4B1B68012B07D00A4B0A4A1A60C0
:10026000C046084B1B68012BFBD1084BC0221A600B
:10027000C046BD4680BDC04604050040DFFF07C044
:10028000186C004000EC06407593000014EC06402A
:1002900080B500AF1A4B1B68FF221340012B2AD1F7
:1002A000184B1B680F22134025D1174B1B68F022F7
:1002B000134006D1154B1B68F022134001D10123D6
:1002C0001AE0114B1B68F0221340102B06D10F4B84
:1002D0001B68F022134001D101230DE00A4B1B687B
:1002E000F0221340302B06D1084B1B68F02213403C
:1002F00001D1012300E000231800BD4680BDC046A7
:10030000E00F00F0E40F00F0E80F00F0EC0F00F059
:1003100080B500AF0D4B1B68FF221340012B11D19C
:100320000B4B1B680F2213400CD10A4B1B68F022A9
:100330001340402B06D1084B1B68F022134001D11B
:10034000012300E000231800BD4680BDE00F00F04F
:10035000E40F00F0E80F00F0EC0F00F080B500AF04
:10036000144B1B68FF221340012B1ED1124B1B683C
:100370000F22134019D1114B1B68F0221340A02B00
:1003800006D10F4B1B68F022134001D101230DE071
:100390000A4B1B68F0221340D02B06D1084B1B6878
:1003A000F022134001D1012300E000231800BD46D4
:1003B00080BDC046E00F00F0E40F00F0E80F00F051
:1003C000EC0F00F003210A4802680A430260094862
:1003D00002680A4302600849084A094B9B1A03DD78
:1003E000043BC858D050FBDCFFF718FFFFF78CFE2A
:1003F0002405004054050040DC06000000000020F9
:100400003C040020FEE7FEE7FEE7FEE7FEE7FEE72E
:1004100010B5010000230022002000F09BF810BD61
:1004200010B50021040000F0E5F8044B1868C36B18
:10043000002B00D09847200000F03AF9CC060000CD
:1004400070B5074D074C641BA41005D0013CA300F8
:10045000EB589847002CF9D100F032F970BDC04636
:10046000380400203C04002070B50C4D0C4E761B67
:10047000B61005D0002408CD01349847A642FAD121
:1004800000F018F9074D084E761BB61005D0002471
:1004900008CD01349847A642FAD170BD300400203F
:1004A000300400203004002038040020F0B505009E
:1004B00083074AD0541E002A44D0CEB20300032240
:1004C00002E00135013C3DD301332E701342F8D1D7
:1004D000032C2FD9FF220A40150215432A04154385
:1004E0000F2C35D92700103F3F093E01B4461E00AE
:1004F0001A0010366644156055609560D56010325C
:10050000B242F8D10F260C2201373F012640DB19F9
:100510003700224217D03E1FB608B400A4461A0086
:100520001C1D644420C2A242FCD103240136B60043
:100530009B193C40002C05D0C9B21C19197001331D
:100540009C42FBD1F0BD3400F4E714000300BFE788
:100550002700E0E7F0B5C64600B51F4C82B024681E
:100560000194A424019D64002D59002D2BD06C68AA
:100570001F2C2EDC002809D10020631C0234A400AB
:100580006B60615102B004BC9046F0BD8827A600A4
:10059000AE19F2510137FF37BC460122AC44674621
:1005A000A2403F68904617436246176084277F0049
:1005B000F3510228E0D12B0040468D33FF331A68F7
:1005C00010431860D8E7019D019E4D35FF35355128
:1005D000CDE701204042D5E7CC060000034B10B523
:1005E000002B02D00248FFF713FF10BD00000000EF
:1005F00041040000F0B55746DE464E4645462B4BBB
:10060000E0B51B680F009A4683B00190A4235246C0
:100610005B00D658002E32D07468651E2FD4C422D9
:10062000520091460134A4003419B144984602E0C6
:10063000043C013D23D3002F04D080235B00E3580A
:10064000BB42F5D173682268013BAB4229D000233D
:100650002360002AECD0736849469B460123AB40D7
:100660000968194212D1904773685B45CED1534651
:1006700042469B58B342C9D1043C013DDBD203B092
:100680003CBC90469946A246AB46F0BD3000802166
:100690008D30FF3000686158184204D101989047AE
:1006A000E2E77560D5E708009047DDE7CC0600007B
:1006B000FEE7C046F8B5C046F8BC08BC9E46704789
:1006C000F8B5C046F8BC08BC9E467047080000203C
:0406D0000000000026
:0806D40034FAFF7F0100000071
:1006DC000024F4000000000000000000F4020020E0
:1006EC005C030020C4030020000000000000000098
:1006FC0000000000000000000000000000000000EE
:10070C0000000000000000000000000000000000DD
:10071C0000000000000000000000000000000000CD
:10072C0000000000000000000000000000000000BD
:10073C0000000000000000000000000000000000AD
:10074C00000000000000000000000000000000009D
:10075C00000000000000000000000000000000008D
:10076C00000000000000000000000000000000007D
:10077C00000000000000000000000000000000006D
:10078C0001000000000000000E33CDAB34126DE60A
:10079C00ECDE05000B000000000000000000000073
:1007AC00000000000000000000000000000000003D
:1007BC00000000000000000000000000000000002D
:1007CC00000000000000000000000000000000001D
:1007DC00000000000000000000000000000000000D
:0C0B0C00DD050000E9000000C100000051
:04000003000003C531
:00000001FF
